:020000022000DC
:1060000000000420BD620200E5620200E7620200B7
:10601000E9620200EB620200ED6202000000000093
:10602000000000000000000000000000EF6202001D
:10603000F162020000000000F3620200F56202005B
:106040007D900200F76202003D9A0200F7620200B2
:10605000F7620200F76202002D950200F76202006B
:10606000F7620200F7620200F7620200F7620200C4
:10607000F7620200F7620200F7620200F7620200B4
:10608000F7620200B17D0200F7620200F7620200CF
:10609000F7620200F762020085BC0200F7620200AC
:1060A000F7620200F7620200F7620200F762020084
:1060B000F7620200F762020000000000000000002A
:1060C000F7620200F7620200F7620200F762020064
:1060D000F7620200F7620200F7620200F762020054
:1060E000F7620200F7620200F7620200000000009F
:1060F00000000000F762020000000000F7620200EA
:10610000000000000000000000000000000000008F
:10611000000000000000000000000000000000007F
:10612000000000000000000000000000000000006F
:10613000000000000000000000000000000000005F
:10614000000000000000000000000000000000004F
:10615000000000000000000000000000000000003F
:10616000000000000000000000000000000000002F
:10617000000000000000000000000000000000001F
:10618000000000000000000000000000000000000F
:1061900000000000000000000000000000000000FF
:1061A00000000000000000000000000000000000EF
:1061B00000000000000000000000000000000000DF
:1061C00000000000000000000000000000000000CF
:1061D00000000000000000000000000000000000BF
:1061E00000000000000000000000000000000000AF
:1061F000000000000000000000000000000000009F
:1062000010B5054C237833B9044B13B10448AFF3F0
:1062100000800123237010BDD02300200000000067
:1062200058CD020008B5034B1BB103490348AFF337
:10623000008008BD00000000D423002058CD0200DB
:10624000A3F5803A704700BF174B002B08BF134BD4
:106250009D46FFF7F5FF00218B460F461348144A71
:10626000121A05F0D9FE0E4B002B00D098470D4BAB
:10627000002B00D098470020002104000D000D489D
:10628000002802D00C48AFF3008005F093FE2000F8
:10629000290004F0CBFA05F079FE00BF00000800E9
:1062A000000000000000000000000420D0230020B7
:1062B000F82C002000000000000000000649074AFA
:1062C000074B9B1A03DD043BC858D050FBDC02F09F
:1062D00015FCFFF7B9FF000050CE0200002300209C
:1062E000D0230020FEE7FEE7FEE7FEE7FEE7FEE73D
:1062F000FEE7FEE7FEE7FEE7F0B595B008460024AE
:106300000E4617461D4602F0A9FA1A9A0D92234628
:10631000082205A93046CDE9095408978DF82C408C
:106320000C9402F0FFFADDE906219DF814308DF897
:106330001140CDE9021203F00302012A28D0022AFB
:1063400004D0304602F08EFA15B0F0BDBDF81650FC
:10635000C3F3C203C5F389158DF810300827082D43
:106360002C4628BF08243B4622460EA9304602F0A0
:10637000D9FA2D1B08AB02AA21460EA8274400F02B
:10638000E5FD002DEBD1304602F06CFA15B0F0BD02
:10639000BDF814100598C1F38312C3F3C203C0F310
:1063A0009525C1F383148DF810300EA93046920064
:1063B000082302F0B7FA08AB0093224602AB0EA9FD
:1063C000284600F04DFD304602F04CFA15B0F0BD05
:1063D000014B01221A70704730240020704700BF23
:1063E00000B583B0044B0093044A4023FFF784FFB9
:1063F00003B05DF804FB00BF01640200F02300203D
:1064000038B50F480F4D03780F4CEB5C4FF0000C84
:1064100084F800C0D2B253B1043004F09BF858B9EC
:106420000A4B1B7813B12378002BFCD038BD0C30FD
:1064300003F0A2FD0028F3D001F028F8F0E700BF38
:1064400000230020C82A002030240020EC23002054
:1064500010B51548154A0378D35C88B0C3B1043031
:1064600003F0C0FF124C0FCCEC46ACE80F0094E8F0
:106470000F008CE80F0006230B48009300226946AA
:1064800002F08CFD40B90B4B00221A7008B010BD11
:106490000C3003F0EBFCE5E700F0F8FF054B0022C1
:1064A0001A7008B010BD00BF00230020C82A0020C9
:1064B00054C00200EC23002010B50F4C0FCC88B064
:1064C000EC46ACE80F0094E80F008CE80F000623C0
:1064D0000A4A0B480093694602F060FD20B9094B57
:1064E00001221A7008B010BD00F0D0FF054B012248
:1064F0001A7008B010BD00BF54C00200D163020082
:1065000000230020EC23002008B5FFF7D5FF044846
:10651000042100F021FC034B01225A7108BD00BF89
:1065200038CE020014230020064B074810B5002285
:106530001A7002F047F9044610B9044802F068FAEC
:10654000204610BD04250020ACCD0200ACC00200E6
:1065500030B499B10D490E4D491BC90813D00D4CEB
:10656000002302E0013399420AD034F8232082420A
:10657000F8D1184655F8300030BC7047044DF9E7A3
:10658000002030BC70470846F6E700BF38CE020056
:10659000C0CD0200D0230020094B013903EBC0001D
:1065A00003290BD8DFE801F0040208060420704735
:1065B000022070474079704700797047002070478B
:1065C000C0CD0200704700BF2DE9F043904CD4E9E4
:1065D00001239A4285B060D00023C4F81834BFF379
:1065E0004F8FA568EAB2D31C04EB830114F8233063
:1065F000580718D566680B7803F00303012B42D0C7
:10660000022B03D14B88023505EB9315EAB2D4F87F
:106610001804D31C04EB830128B9AE4239D914F80D
:1066200023305B07E7D404EB82026B1CDBB2D26839
:1066300004EB830302F00301DB680229CDE90123A7
:1066400005F102062DD0012900F09280D4F81054F3
:106650003DB12B6828469B689847EB681D68002D64
:10666000F7D16C486C4B6D49C01AC008000440F06B
:10667000020000F09BFAD4E90130C01A18BF0120D3
:1066800005B0BDE8F0830B880235C3F383131D44C6
:10669000BCE7A66005B0BDE8F083002005B0BDE80A
:1066A000F083BDF806305E48C3F389184546502D87
:1066B00028BF502505F1080165F38F13C1F30901C7
:1066C000ADF8063002F080F807460028BED002F090
:1066D000C5F80023082201A9384602F0EFF8F34379
:1066E000DBB20133B5EB830F4FEA83027ED9F1B2FF
:1066F0005FFA82F9033104EB810138460823A5EBE8
:10670000090502F0DBF8EDB209F10803454903F091
:10671000FC032A46384602F0D1F808F1030806EBDC
:106720009806D4F81834002B6ED1D4F8105465B103
:10673000EB685A7928463946002A61D02B681B68D5
:106740009847EB681D68002DF2D1384602F08AF8B0
:1067500000230DF103008DF8033001F08DF9D4F81A
:10676000183403B9A6609DF8030001F0ABF982E785
:10677000BDF804202A48C2F38313062B28BF062342
:1067800063F38912023303F00F018900ADF804208E
:1067900002F01AF8074600283FF458AF02F05EF8FE
:1067A0000023082201A9384602F088F8BDF8043019
:1067B00013F4707FB5D06FF001094FF00808A9EB12
:1067C0000509F1B203314346042204EB8101384646
:1067D00002F074F8BDF804300136C3F3831309EBFB
:1067E0000602934208F10408EBD89AE7F1B20331AC
:1067F0002A4604EB81010823384602F05FF88CE753
:106800001D68002D94D1A0E7384602F02BF832E73E
:1068100004250020E8CD0200C0CD020094C0020093
:10682000ACCD0200102500202DE9F04FDFF8BCB1FF
:1068300089B0002406460DF113000393CDE901123F
:106840008DF8134001F018F9DBF80830DBF804701C
:1068500003F58073DB1B032B00F281800BF21C45D8
:106860000BF583680BF214441AE0BDF81630C3F33D
:10687000891303334FEA11490AEB930A204601F0CA
:10688000A5FB494600283AD02846CBF808A001F0DD
:1068900079FBDBE9012303F580739B1A032B5FD897
:1068A0000121284601F06EFB404601F083FB2046A3
:1068B00001F080FBDBF80830DAB2D11C0BEB810C65
:1068C0001BF8211001F00400490728D40BEB8201CA
:1068D0005A1CC9680591D2B201F003000BEB820289
:1068E0000128D16803F1020A31D00228BDD0204628
:1068F00001F06CFB4FF0000949460028C4D128463E
:10690000C5E7BCF802300EEB9313DAB2D11C0BEBE7
:10691000810C1BF8210000F004000028D6D09CF860
:10692000001001F0030101290AD0022903F1020E2F
:1069300002F10301E5D00BEB810C0028EFD1C5E794
:10694000BCF800200233C2F383121344DDE7BDF824
:106950001430C3F383134FEA11499A448EE73A4641
:10696000D3B20333043285219DF813004BF8231072
:10697000CBF8042001F0A6F8BB1CDBB20BEB8303C1
:10698000029ADA60FB1CDBB20BEB8303039ADA603A
:106990000021154801F0D4FA80F31001F300019AA8
:1069A00003F0380343F08103781C43EA8223C0B22A
:1069B000FAB209040BEB8000033241EA1641C160D0
:1069C0004BF822309BF8003023B9FFF7FBFD09B0EC
:1069D000BDE8F08FFFF7F8FD0028F6D0FFF7F4FDD3
:1069E0000028F7D1F1E700BF20290020042500206E
:1069F0002DE9F04FDFF8B0B187B0002306460DF166
:106A00000B008DF80B30CDE9001201F035F8DBE911
:106A1000018303F58073A3EB0803022B00F281804E
:106A20000BF21C450BF583670BF214441AE0BDF81A
:106A30000E20C2F3891203324FEA114A09EB920980
:106A4000204601F0C3FA514600283AD02846CBF838
:106A5000089001F097FADBE9012303F580739B1A94
:106A6000022B5FD80121284601F08CFA384601F04C
:106A7000A1FA204601F09EFADBF80830DAB2D11C08
:106A80000BEB810C1BF8211001F00400490728D4FE
:106A90000BEB82015A1CC9680391D2B201F00300CA
:106AA0000BEB82020128D16803F1020931D00228E0
:106AB000BDD0204601F08AFA4FF0000A5146002866
:106AC000C4D12846C5E7BCF802300EEB9313DAB206
:106AD000D11C0BEB810C1BF8211001F004000028E5
:106AE000D6D09CF8001001F0030101290AD0022938
:106AF00003F1020E02F10301E5D00BEB810C00283B
:106B0000EFD1C5E7BCF800200233C2F3831213446F
:106B1000DDE7BDF80C20C2F383124FEA114A91441D
:106B20008EE74246D3B20333033245219DF80B0072
:106B30004BF82310CBF8042000F0C4FF08F1020347
:106B4000DBB20BEB8303019ADA600021154801F0F8
:106B5000F7F980F31001F300009A03F0380343F0D3
:106B6000410308F1010043EA8223C0B25FFA88F2D0
:106B700009040BEB8000033241EA1641C1604BF877
:106B800022309BF8003023B9FFF71CFD07B0BDE8A9
:106B9000F08FFFF719FD0028F6D0FFF715FD00284C
:106BA000F7D1F1E720290020042500202DE9F04F3E
:106BB000DFF8A0A187B0002306460DF10B008DF889
:106BC0000B30019100F058FFDAE9018303F580737F
:106BD000A3EB0803012B00F281800AF21C450AF5A1
:106BE00083670AF214441AE0BDF80E30C3F3891328
:106BF00003334FEA11490BEB930B204601F0E6F902
:106C0000494600283AD02846CAF808B001F0BAF937
:106C1000DAE9012303F580739B1A012B5FD8012168
:106C2000284601F0AFF9384601F0C4F9204601F0DA
:106C3000C1F9DAF80830DAB2D11C0AEB810C1AF883
:106C4000211001F00400490728D40AEB82015A1CE4
:106C5000C9680391D2B201F003000AEB8202012855
:106C6000D16803F1020B31D00228BDD0204601F0DB
:106C7000ADF94FF0000949460028C4D12846C5E7C0
:106C8000BCF802300EEB9313DAB2D11C0AEB810C84
:106C90001AF8211001F004000028D6D09CF800104A
:106CA00001F0030101290AD0022903F1020E02F1C9
:106CB0000301E5D00AEB810C0028EFD1C5E7BCF851
:106CC00000200233C2F383121344DDE7BDF80C3019
:106CD000C3F383134FEA11499B448EE74246D3B274
:106CE0000333023205219DF80B004AF82310CAF83D
:106CF000042000F0E7FE0021154801F021F980F39F
:106D00001001F300019A03F0380343F0010308F186
:106D1000010043EA8223C0B25FFA88F209040AEB59
:106D20008000033241EA1641C1604AF822309AF8E5
:106D3000003023B9FFF746FC07B0BDE8F08FFFF73E
:106D400043FC0028F6D0FFF73FFC0028F7D1F1E71D
:106D5000202900200425002030B4154DD5F810144A
:106D60000446002071B10B4601E01B6853B1DB689B
:106D70001A798242F9D101300A28F3D14FF0FF305D
:106D800030BC7047E3681871D5F810344BB1DA683D
:106D9000E36812681A60D5F81034DB681C6030BCF8
:106DA0007047C5F81044E268136030BC704700BFFC
:106DB0000425002038B5084BD3F8104401251D7078
:106DC0004CB1E3685D71236820465B689847E368CF
:106DD0001C68002CF5D138BD0425002030B5C388CF
:106DE00085B004460D4623BB237A052B1FD0627A5B
:106DF00082B9144AA08852F8232003920021FFF799
:106E0000A7FB039A10490346284605B0BDE8304069
:106E100001F056B91946A088FFF7BEFB0B4B0C4991
:106E200053F82020284601F04BF9237AE1E705B01A
:106E300030BD08490091084A0849284601F040F948
:106E4000D2E700BF84C10200E4C0020060C10200BA
:106E5000E0C00200D8C00200B8C00200C0C00200FA
:106E60002DE9F04385B01D460C9C002394F80C904E
:106E7000237380460E46174621462846FFF7AEFF8D
:106E8000062F09D8DFE807F0042E343B444F1F00DB
:106E90004146204601F014F92B7A052B05D06B7A78
:106EA0005BB92749204601F00BF9204601F0FCF8B8
:106EB00084F80C9005B0BDE8F083224A22492046B0
:106EC00001F0FEF8EDE77369039333690293F36809
:106ED0000193B3680093D6E900234146204601F0B0
:106EE000EFF8D9E732684146204601F0E9F8D3E7E8
:106EF000D6E900234146204601F0E2F8CCE7B3682A
:106F00000093D6E900234146204601F0D9F8C3E7B3
:106F1000F3680193B3680093D6E900234146204605
:106F200001F0CEF8B8E733690293F3680193B368D0
:106F30000093D6E900234146204601F0C1F8ABE7B3
:106F4000F0C00200D8C00200E0C00200082900D949
:106F500070472DE9F04F1D4683B000241B7B2C7336
:106F60000E4607462946104690460193DFF8D0B0FA
:106F7000DFF8D0A0FFF732FF05E03A5D013401F001
:106F80009FF8082C09D0A64251462846F5D8594604
:106F9000013401F095F8082CF5D12449DFF8A8B0A8
:106FA000234CDFF8A8A0284601F08AF84FF000092A
:106FB00017E017F80910481C7E294FF02E02C0B2C6
:106FC00006D810F80A2012F0970F14BF0A462E2296
:106FD0002146284609F1010901F072F8B9F1080FBC
:106FE0000AD04E45E5D85946284609F1010901F075
:106FF00067F8B9F1080FF4D198F80830052B02D0E2
:1070000098F809305BB90B49284601F059F8284631
:1070100001F04AF8019B2B7303B0BDE8F08F064ADC
:107020000649284601F04CF8EDE700BF00C1020018
:1070300004C10200F0C00200D8C00200E0C002009B
:10704000FCC00200F4C00200ECC0020050CC020000
:1070500038B5174B1D783DB3164A1168C0B20023EE
:107060000C4604E00133AB4204F108041CD011F8D3
:1070700033209042F6D102F049FA6378A3F101037C
:10708000B3FA83F35B09834200D038BD0A4BD3E9DE
:1070900000231343F9D1094B094819680022BDE8C0
:1070A0003840490800F04CBC00231B78FFDE00BFCD
:1070B000BC290020F0290020C8290020C029002078
:1070C000202300202DE9F04FDFF8788298F8003077
:1070D00083B0002B00F02B81DFF86C92954F964E19
:1070E00000254FF0010AD7F800B01BF8350002F078
:1070F0000DFA1BF835400BEBC50361085B7816F8F9
:1071000001C014F0010EA3F10103B3FA83F314BF1D
:107110004FEA1C120CF00F025B09042A00F2EA800D
:10712000DFE802F0725F33200300834240F09F806B
:10713000BEF1000F0CBFF0230F230CEA030C0CBFB1
:107140000323302343EA0C03735498F800200135DD
:107150009542C8DBD9E90023134340F0DE8003B039
:10716000BDE8F08F834200F0C580BEF1000F0CBF78
:10717000F0230F230CEA030C0CBF0423402343EA43
:107180000C03735498F80020E1E7834240F0B58087
:10719000BEF1000F0CBFF0230F230CEA030C98F88C
:1071A00000200CBF0323302343EA0C037354002A4E
:1071B000D0D0D7F800C00023614603E0934201F12C
:1071C0000801C4D01CF83300A04203F10103F5D13B
:1071D0004B68002BBBD020460121984798F800202F
:1071E000B5E7834219BF00231A4620230222BEF1CD
:1071F000000F16BF1A46F0230F230CEA03031A43AD
:10720000725498F80020A2E7834273D14FF0000334
:10721000BEF1000F8DF8073014BF0F23F0230CEAE6
:10722000030C14BF1023012343EA0C030DF10700E4
:10723000735400F021FCA4F12003C4F120022AFAC7
:1072400002F20AFA03F31343D9F800209DF807006D
:107250000AFA04F42243C9F80020D9F804201343A1
:10726000C9F8043000F02EFC98F800206FE7BEF15A
:10727000000F14BF0F23F0230CEA030398F800C09B
:107280007354BCF1000F12D038680023024603E0AB
:10729000634502F108020AD010F83310A14203F14D
:1072A0000103F5D1536813B10021204698474FF0F0
:1072B00000030DF107008DF8073000F0DDFBA4F1AD
:1072C0002003C4F120022AFA02F20AFA03F313435C
:1072D000D9F800209DF807000AFA04F422EA040213
:1072E000C9F80020D9F8042022EA0303C9F80430C1
:1072F00000F0E8FB98F8002029E7BEF1000F0CBF72
:10730000F0230F230CEA030C0CBF0123102343EAE4
:107310000C03735498F8002019E7084B08481968C3
:107320000022490803B0BDE8F04F00F009BBDFF8C8
:1073300018900FE7F0290020D0290020C029002054
:1073400020230020BC290020C8290020092A3FD979
:10735000F0B583B0144605460E4601F021FF88B310
:10736000204B214A1E70214B1560002120481C60D3
:10737000202204F051FE1F4B00200021741EC3E99F
:107380000001E4B236B31C4F05EBC404032602E04F
:10739000A5421FD01C469DF8063094F802C0207804
:1073A0008DF8046023F007033A4601A98DF80630F2
:1073B0008DF805C001F0FEFEA4F108030028E7D017
:1073C00003B0F0BD01F092FE0028C9D003B0F0BDBB
:1073D00007207047094A0A48002103B0BDE8F04081
:1073E00000F096BABC290020F0290020C029002016
:1073F000D0290020C829002051700200C570020069
:10740000A4C1020070B5084D2B785BB1074E002473
:107410003368012113F8340001F0CEFF2B780134DA
:10742000A342F5D8002070BDBC290020F02900201F
:1074300070B5124D2B7882B053B1114E00243368D1
:1074400013F8340002F028F82B780134A342F6D860
:107450000DF1070000238DF8073000F00DFB094BFC
:107460009DF8070000240025C3E9004500F02AFB31
:10747000054802B0BDE8704000F0BEBABC2900204B
:10748000F0290020C82900202023002000B585B065
:107490000346002101AA44F20100CDE90111039342
:1074A00000F004F805B05DF804FB00BF10B572B63B
:1074B000FFF780FCFFF788F80028FBD1104B114C38
:1074C0001149E41AE408240444F00100FFF76EFBBC
:1074D0000E4BD3F8F030DB0700D500BE0C4944F06A
:1074E0000200FFF763FBBFF34F8F0849094BCA68DF
:1074F00002F4E0621343CB60BFF34F8F00BFFDE7A0
:10750000C0CD0200E8CD0200A8C1020000ED00E0FD
:10751000B4C102000400FA0530B48D688468C36801
:10752000CA68A54272EB03032CBF0120002030BCC7
:10753000704700BF10B5044682B000230DF107006C
:107540008DF8073000F098FA23692BB94FF0FF321D
:107550004FF0FF33C4E902239DF8070000F0B2FAB0
:10756000D4E90530984700230DF107008DF8073066
:1075700000F082FA2369BBB1D4E90212B2F1FF3FF5
:1075800008BFB1F1FF3F0FD05B1842F10002C4E920
:1075900002329DF8070000F095FA0748214601F0F5
:1075A0005BFA012002B010BD9DF8070000F08AFAD6
:1075B000002002B010BD00BFD4C102002DE9F04F81
:1075C0002DED028B83B008EE100A00F0AFFB40B146
:1075D000AC4AD2E9003113F1807341F10001C2E9F4
:1075E000003118EE100A002100F0BCFBA64D60B37C
:1075F0002B6853B3A54B2C681B7823B31CB3A4484A
:1076000000F0C0FB9F4BA34A19685B684018D2E9A1
:10761000001243F10003884273EB020203D210F11F
:10762000807043F10003D4E902128842934180F054
:107630002581B2F1FF3F08BFB1F1FF3F03D096486B
:10764000214601F009FA00232B6018EE100A0121EF
:1076500000F088FB002840F0F180904801A900F07C
:107660000BFC00283AD08D4C4FF0FF384FF0FF391B
:1076700009E033B301A9204600F030FC01A92046FF
:1076800000F0FAFB50B30378012B11D0022BF0D19C
:10769000814E304601F0F4F930B1C0E9028930463C
:1076A00001F0EEF90028F8D1784B01221A70E1E7D9
:1076B0002B684168994200F0B580774801F0EAF9FB
:1076C000D8E74168D1E90223B3F1FF3F08BFB2F127
:1076D000FF3FCFD0704801F0BFF9CBE76E4FDFF826
:1076E000B081DFF8A091384601F0D0F9002852D0DF
:1076F000D0E90223B3F1FF3F08BFB2F1FF3F00F032
:107700008D80296891B12968D1E9020182428B41BB
:1077100044D22B68D3E90223B3F1FF3F08BFB2F193
:10772000FF3F03D02968384601F096F9384601F04A
:10773000A7F904464046574ED4E902BA00F022FBAE
:10774000D9E900133268401843F10003904272688F
:1077500073EB020203D210F1807043F10003BBEB24
:1077600000006AEB0303012873F1000324DBB0F58A
:10777000350F4DD25A464FF496030021404600F093
:107780004FFA80B10D281BD0002338462B6001F042
:107790007DF90028ACD12B68002B66D003B0BDEC7E
:1077A000028BBDE8F08F2B68002B3ED02C6003B01D
:1077B000BDEC028BBDE8F08F0021404600F0C6FA18
:1077C000324B1B78002BDFD0404600F0DBFAD9F8B3
:1077D0000030D6E90012C018D9F8043043F1000394
:1077E000884273EB020203D210F1807043F1000370
:1077F000D4E90212884293411CD2B2F1FF3F08BF84
:10780000B1F1FF3FC0D02146384601F025F9BBE772
:10781000404600F0B7FA224A0244ACE7384601F08D
:107820002FF960E700232B6024E718EE100A00F020
:10783000C5F9BBE72046FFF77DFEA5E71448154EC6
:1078400000F0A0FA0F4B1A685B688018D6E90012A6
:1078500043F10003884273EB020203D210F18070FF
:1078600043F10003C6E90003F7E618EE100A03B07F
:10787000BDEC028BBDE8F04F00F0A4B92046FFF745
:1078800059FEE0E6F8290020782A0020002A00208E
:1078900040230020702A0020D4C102005C2A00206E
:1078A000FFFFB40010B5134B13491C68134882B096
:1078B00008235822019400F085FA044610B12046AE
:1078C00002B010BD0E4A0F4801A900F013F904469A
:1078D0000028F4D10B48012100F01EFA01231946BB
:1078E000094A084800F072F9084B012220461A7034
:1078F00002B010BDD0C10200042A00205C2A002082
:10790000BD75020040230020FFFF7F00002A0020F9
:107910006AB19FED097BA1F101010368B1FA81F120
:10792000490983ED027BC3E9041200207047072058
:10793000704700BFAFF30080FFFFFFFFFFFFFFFFB7
:10794000F0B583B00446002501A817460E468DF811
:10795000045000F091F8D4E90223B3F1FF3F08BFCF
:10796000B2F1FF3F06D09DF8040000F0ABF82846C6
:1079700003B0F0BD1C4800F005FA1C4B1C4A196806
:107980005B684018D2E9001243F10003884273EBB0
:10799000020224D3301843F10003A060E3609DF895
:1079A000040000F08FF82369A76103B12661114834
:1079B00001A900F01FFA034670B100250D481D70A3
:1079C0005C6001A900F048FA0028D1D0064800F018
:1079D000DDF9284603B0F0BD042003B0F0BD10F17E
:1079E000807043F10003D5E740230020F8290020F0
:1079F000702A00205C2A002030B583B004460025A0
:107A000001A88DF8045000F037F8D4E90223B3F14F
:107A1000FF3F08BFB2F1FF3F1CD04FF0FF334FF0E4
:107A2000FF32C4E902239DF8040000F04BF810482F
:107A300001A900F0DFF9034648B10122027001A953
:107A40000B485C6000F008FA58B903B030BD042060
:107A500003B030BD9DF8040000F034F8284603B0B0
:107A600030BD044800F092F9284603B030BD00BF95
:107A70005C2A00204023002070B4EFF3108472B61B
:107A80000D4B9A68AAB9012199600C490C4ED1F8A6
:107A9000805035401D60C1F88060D1F884505D6031
:107AA0004FF0FF33C1F88430027004B962B670BC85
:107AB000704701230370F8E77C2A002000E100E012
:107AC000FC06FFBD094B9A687AB170B910B4EFF3A8
:107AD000108172B6064A1C6814605C685460986035
:107AE00001B962B65DF8044B704770477C2A0020EC
:107AF00000E100E010B5294C437944F82320284CDC
:107B000004EBC3031B79002B3BD103680A88C3F83D
:107B1000082590F904308A78002B2ADB03F16043B2
:107B2000520103F56143D2B283F8002390F9043087
:107B3000002B09DB1B494FEA531C012203F01F03F2
:107B400002FA03F341F82C304279174B44F8320023
:107B50001648181A04EBC201C0084FF0010C0004CB
:107B600081F804C040F003001149FFF71FF800201E
:107B700010BD104903F00F0352011944D2B20A7626
:107B8000D4E70A4B08480C49C01AC008000440F06A
:107B90000200FFF70BF8082010BD00BF902A00205C
:107BA000882A002000E100E0F8CD0200C0CD0200EC
:107BB00004C20200FCEC00E0E0C102000368012204
:107BC0001A607047036801225A60704770B40568F4
:107BD0004FF480348C40C5F80843056801F1500C1F
:107BE000C5F848434FEA8C0C05681FFA8CFC002648
:107BF00045F80C6083B055F80C500195019D05685F
:107C000001F5A87122F07F4245F821200268C2F8F0
:107C1000444313B10368C3F8044303B070BC704716
:107C20002DE9F0474FF4803622F07F4702688E40FE
:107C3000C2F848630268C2F80863026802EB810C6C
:107C4000044601F15005D2F80405DCF84025CCF8D3
:107C50004005AD00ADB2121A20684FF0000840F8A0
:107C6000058082B04059009022F07F42012A00989E
:107C70008A46994641D02268D2F80455C2F8446336
:107C80007A1B22F07F42012A0AF5A87125D02368C9
:107C900043F821702068D0F804557B1BC9F1FF120E
:107CA000013B02F57F4223F07F439A4211D343B157
:107CB000C0F8446323680020C3F8046302B0BDE841
:107CC000F087013740F821702068D0F804359D42D4
:107CD000EED00D2002B0BDE8F0872368013743F8ED
:107CE00021700C4B4FF4806043F0010398472068EB
:107CF000D0F804359D42DBD0EBE7064A4FF48060B4
:107D000042F001029047226842F8058052590192E0
:107D1000019AB0E720C2020002680223C2F844338D
:107D200011B10268C2F80433704700BF0368D3F88A
:107D3000040100B97047002282B0C3F80421D3F8CF
:107D400004310193019B012002B0704702684FF497
:107D5000803303FA01F1C2F848130368C3F808132B
:107D6000704700BF50318900036889B2585800B984
:107D7000704700225A5082B05B580193019B01204A
:107D800002B070470368D3F80405704790F90430D7
:107D9000002B09DB5A09054803F01F03012140327B
:107DA00001FA03F340F82230704700BF00E100E021
:107DB000024A034B10681B68184700BF882A00203E
:107DC000902A002099B110B4B2FBF3F403FB142401
:107DD000A4B244B9C0E9001484608281C381204602
:107DE0005DF8044B704709205DF8044B70470E2086
:107DF000704700BF10B483B050E8013F1FFA83FC06
:107E0000C489A4448489A44528BFACEB040C04892C
:107E1000A44502BFBFF32F8F002207E0CCEA030C7A
:107E200040E801C4002CE7D14FF001028DF8032097
:107E30000193019C9DF803200C6032B1006810FA98
:107E400084F003B05DF8044B704702F0FF0318465E
:107E500003B05DF8044B70470A884B889A4201D002
:107E60000020704750E8012FC2EA024240E8012397
:107E7000002BF7D10120704710B483B050E8023FC7
:107E80001FFAA3FCC488A44502BFBFF32F8F0022B2
:107E90000EE0C489A4448489A44528BFACEB040C3B
:107EA000C3EA0C4C40E802C4002CE7D14FF00102B9
:107EB0008DF803200193019C9DF803200C6032B1E2
:107EC000006800EB144003B05DF8044B704702F00B
:107ED000FF03184603B05DF8044B70470A884B88CF
:107EE0009A4201D00020704750E8022FC2EA224295
:107EF00040E80223002BF7D1012070474B0901F025
:107F00001F024FF0010C0CFA02F100EB830000F0AD
:107F100021B800BF01F01F02012303FA02F24B094E
:107F200000EB8300D14300F021B800BF4B0901F002
:107F30001F0150F82300C84000F00100704700BF47
:107F4000034653E8000F0A4643E8002C9CF0000F5C
:107F5000F7D17047034653E8002F42EA010043E897
:107F6000000C9CF0000FF6D1704700BF034653E8A9
:107F7000002F02EA010043E8000C9CF0000FF6D14C
:107F8000704700BF034653E8002F02EB010043E8AF
:107F9000000C9CF0000FF6D1704700BF034653E879
:107FA000002FA2EB010043E8000C9CF0000FF6D17B
:107FB000704700BF0346012253E8001F41EA020058
:107FC00043E8000C9CF0000FF6D1704703460022F6
:107FD00053E8000F00EA020143E8001C9CF0000F88
:107FE000F6D17047D0B110B4D0E90112521A04682A
:107FF000D2B2531E2160DBB252B101680A6803F1AC
:10800000FF3C541C0C6013705FFA8CF3FF2BF4D10F
:108010000368002018715DF8044B70470E2070470C
:1080200030B583B0044600250DF107008DF80750E8
:10803000FFF722FDD4E900311A688A4210D9511E97
:1080400019602168A3680D6812F8012C208A5B1B57
:10805000E56800FB02550A79DBB29A4238BF0B7122
:108060009DF80700FFF72EFD284603B030BD00BF86
:1080700030B5054683B00DF1070000230C468DF89E
:108080000730FFF7F9FC2A681368591C1160E9688A
:108090002A8A641AB4FBF2F41C709DF80700FFF7FB
:1080A00011FD03B030BD00BF826842B110B5044677
:1080B00043690168006998470023A36010BD7047B9
:1080C0000EB400B582B0039921B104AB01AA0193AB
:1080D00000F0B6F802B05DF804EB03B0704700BFE3
:1080E0002DE9F04F154683B0A942DDF830900D9A86
:1080F0000F4606469A46C0F09E800B464FF0010898
:10810000B3FBF5F39D4208F10108F9D9D04538BF1A
:10811000D04612F00103019302D1B9F1000F67D1EB
:10812000B268BAF1010F4FF0010406D90AF1FF3A23
:10813000BAF1010F05FB04F4F8D8B7FBF4F39D4244
:1081400005D805FB04F4B7FBF4F39D42F9D9DFF839
:10815000ECA007E0AC42B4FBF5F31AD3B2681C46BE
:10816000B7FBF3F31AF803B0BBF10A0F04FB137764
:1081700028D03368511CB16003F802B0D6E901324F
:108180009A42E7D33046FFF78FFFB4FBF5F3AC42DA
:10819000E4D2019B9BB1B9F1000F10D02024C84557
:1081A00009F1FF390BD2B3683268591CB160D4545D
:1081B000D6E901329A4214D2B9F1000FEFD103B0DF
:1081C000BDE8F08F511C3368B1604FF00D01995438
:1081D000D6E901329A42CCD33046FFF765FFB26848
:1081E000C7E73046FFF760FFB9F1000FD7D1E6E7E8
:1081F00093071AD42024B268C84502F1010190D235
:108200003368B1609C54D6E901329A4209F1FF39D2
:1082100003D2B9F1000FEFD183E73046FFF744FFF7
:10822000B268B9F1000FE7D17BE7BAF1000F0CBFDC
:1082300030242024DFE74FF0010867E728C202005E
:10824000002900F05C822DE9F04FDFF870950D7881
:1082500085B0064690460C464FF00D0A0FE00A2DF9
:10826000B36800F08E803268591CB160D554D6E9ED
:1082700001329A4280F081802578002D69D0013446
:10828000002D66D0252DEAD10027234614F8012BB6
:108290002D2A6CD0302A6DD02B2A61D02A2A7FD08B
:1082A000A2F1300109294FF000050BD805EB850537
:1082B00002EB450513F8012FA2F130010929A5F1C0
:1082C0003005F3D92E2A1C4675D0002301E014F89E
:1082D000012F02F0FB016829F9D0252A00F08681E0
:1082E000583AD1B2202930D8202A2ED8DFE812F00F
:1082F00021002D002D002D002D002D002D002D0022
:108300002D002D002D00FE0079002D002D002D00E8
:108310002D0079002D002D002D002D002D002D00A9
:10832000BD002D002D001A012D0016012D002D007D
:108330002100D8F800101022081DC8F800000968B4
:108340003046CDE90057FFF7CBFE01342578002DEC
:1083500095D1337B002B40F0438105B0BDE8F08F11
:10836000234614F8012B2D2A47F0040792D147F039
:1083700001078AE747F0020787E73046FFF794FED8
:108380007AE73268591CB16002F803A0D6E90123EC
:108390009342FFF468AF3046FFF786FEB36862E7AA
:1083A000D8F80020111DC8F8001015685A782E2A38
:1083B00003F1010489D16278A2F13003092B04F1A1
:1083C00001044FF0000384D803EB830302EB430363
:1083D00014F8012FA2F130010929A3F13003F3D9D8
:1083E00077E7D8F80020111DC8F80010D2F800B0C7
:1083F0008BEAEB72A2EBEB72092A40F3DB81DFF828
:10840000C0C3012011466329ACFB02E200F1010068
:108410004FEAD202F6DC9842024638BF1A46029270
:10842000002D00F01E81BBF1000FC0F22E817A07F3
:1084300000F12B81B80740F12A81002B40F0278101
:10844000BBF1000FC0F27D817A0700F18D8107F04A
:108450000302022A00F05D81CDE9005759460A2245
:108460003046FFF73DFE013470E7D8F800301A1DA2
:10847000C8F800201F68B3683268581C3021B0600B
:10848000D154D6E90123934280F0FA80591C326816
:10849000B1607821D154D6E901329A4280F0EB8064
:1084A0000F2F03D93B461B090F2BFCD84FF08055EB
:1084B00006E00F2D4FEA15137FF647AFB2681D4651
:1084C000B7FBF5F319F803B0BBF10A0F05FB1377FF
:1084D00077D03368511CB16003F802B0D6E901329D
:1084E0009A42E6D33046FFF7DFFDE2E7D8F80030E6
:1084F0001A1DC8F800201D78B3680A2D00F03A81D3
:108500003268591CB160D554D6E901329A42FFF461
:108510001CAF3046FFF7C8FD013417E7D8F800104C
:108520000A2209E7D8F800301A1DC8F8002017F011
:108530000107D3F800B064D1BBF1000F03D0584657
:1085400003F072FD0746BD4215D9202201E0BD426D
:1085500011D0B1683368481CB0605A54D6E9013074
:10856000984205F1FF35F2D33046FFF79DFDBD423D
:108570004FF02002EDD19BF80050002D3FF4E5AE06
:108580000A2DB0680FD03368421CB2601D54D6E982
:108590000130984280F0B4801BF8015F002D3FF459
:1085A000D4AE0A2DEFD13368421CB26003F800A0AC
:1085B000D6E901309842E6D33046FFF775FDB06842
:1085C000E1E73368511CB16003F802A0D6E901323B
:1085D0009A42FFF47EAF3046FFF766FDB26878E757
:1085E000304605B0BDE8F04FFFF75EBDB3683168B7
:1085F000581CB060CA54D6E901329A4289D201347B
:10860000A4E69BF80030002B00F0D680B0685F46EF
:10861000CBF101020A2B02EB070B5ED0411CB160CB
:1086200031680B54D6E90130984248D217F8013F1F
:10863000002BEFD15D457FF688AE202702E05D4537
:108640003FF483AEB2683368511CB1609F54D6E9E1
:1086500001329A4205F1FF35F1D33046FFF724FD90
:10866000EDE7B80705D5002B3FF4EAAEF9073FF573
:10867000E7AE0025E4E63046FFF716FDB2680FE7E7
:108680003046FFF711FDB36800E7013DD2E6F90778
:108690003FF5D6AE002DECD020220299A942BFF4BE
:1086A000CFAEB168481CB06030684254D6E90101D1
:1086B000814205F1FF356CD2002DEED1D9E730466D
:1086C0000292FFF7F1FC17F8013F002BB2D0029A9B
:1086D000B0680A2B02EB070BA0D1411CB1603168D6
:1086E00001F800A0D6E90110884297D33046CDE9C1
:1086F0000232FFF7D9FCDDE90232B0688EE770473D
:108700003046FFF7D1FC1BF8015F002D7FF438AF36
:108710001BE6002B7FF4A0AE8DB1302202998D4272
:108720007FF69AAEB168481CB06030684254D6E912
:108730000101814205F1FF3535D2002DEED1002532
:108740008AE6B1683268481CB060CBF1000B2D207E
:108750005054D6E901219142FFF479AE304603939B
:10876000FFF7A2FC039B72E6B1683268481CB06058
:108770002B20EDE73268591CB16002F803A0D6E95E
:1087800001239342FFF4BCAE3046FFF78DFCB36883
:10879000B6E630460393FFF787FC039B2022002DAB
:1087A0007FF47BAF65E730460393FFF77DFC039BC7
:1087B0003022C2E701202EE69B463BE728C202009A
:1087C000CDCCCCCCFFF70EBC2DE9F041058A0331AE
:1087D000043D4E198046B6FBF5F6FFF721FCA0B329
:1087E000F6B24FF48073013E04468380C580C0F822
:1087F00000802BD00346002508E06279AE4202F1EA
:10880000010262713860C0F800801FD040461F46E8
:10881000FFF706FC013503460028EED16779791E83
:1088200017D02246013399421268FBD1D2F800805A
:108830005FB12668002501E034463668214640468F
:108840000135FFF715FCAF42F6D800242046BDE8FD
:10885000F08120682146FFF70BFCF6E70121043088
:10886000FFF790BB2DE9F041012104460430FFF7EA
:1088700095FB10F0FF0301D0BDE8F0816779791E08
:1088800016D02246013399421268FBD1D2F80080FB
:10889000002FF1D02668002501E0344636682146D5
:1088A00040460135FFF7E4FBAF42F6D8BDE8F08162
:1088B00020682146BDE8F041FFF7DABB2DE9F84317
:1088C0008846C788417907FB01F1043902EB030CA4
:1088D0001E1D6145154638BFCD1AB7420446B6FB8A
:1088E000F7F207FB126002D8013A2468FCD13E1A65
:1088F000AE4228BF2E469DB14FF000090430AD1B9B
:10890000324608EB0901204403F078FBAF42B14442
:1089100024683E464FF0000028BF2E46002DEDD1C2
:10892000BDE8F8832DE9F8430446C788407907FB82
:1089300000F0043802EB030C1E1D6045154638BFDD
:10894000C51AB7428846B6FBF7F107FB116202D899
:1089500001392468FCD1BE1AAE4228BF2E469DB113
:108960004FF00009111DAD1B3246214408EB0900F0
:1089700003F044FBAF42B14424683E464FF000028E
:1089800028BF2E46002DEDD1BDE8F88341DF7047AA
:10899000064A074B10B5002414701C60BFF35F8FAC
:1089A0000449054800F042F8204610BD9C2A0020EA
:1089B000A02A002044C20200942A002000B583B0FF
:1089C00000230DF107008DF80730FFF755F8F1EEA1
:1089D000103A23F09F03E1EE103ABFF35F8F0B4B89
:1089E0004022C3F884219DF80700FFF76BF803F0DD
:1089F00043F928B920BF40BF20BF03B05DF804FB96
:108A000003B05DF804EBFFF7C1BF00BF00E100E079
:108A10008268002393608268136182685361826870
:108A2000D3608268536082681360704701600B688E
:108A300043604A68934204BF00234360704700BF0D
:108A4000436843B1026891680B44436052689342A3
:108A500004BF00234360704770B544680646206831
:108A60000D4618B908E02468206828B1B368294683
:108A700098470028F7D120682860256070BD00BFA6
:108A80004368186808B102681A607047436818683C
:108A9000704700BF4368186818B908E003460068CB
:108AA00028B18142FAD10A681A60012070477047E4
:108AB0001049A1F5947205E052F83330984238BF5E
:108AC00061460CD2A1EB020C4FEADC7303EBEC0322
:108AD0005B10914202EBC30CEED80748704702D9F5
:108AE0000CF10802EEE7DCF80400034B002808BF95
:108AF0001846704784C7020048C6020010B44FF001
:108B00008053D3F83021082A23D0844AD2F8883001
:108B100043F47003C2F88830BFF34F8FBFF36F8FF9
:108B20004FF08053D3F83021082A00F0B3804FF083
:108B30001023D3F80022002AC0F2BF80D3F80432F9
:108B4000002BC0F2BA80764B764A1A605DF8044B6F
:108B500070474FF080410020C1F80C01724AC1F803
:108B60001001C1F83805D3F80414C2F82015D3F861
:108B70000814C2F82415D3F80C14C2F82815D3F839
:108B80001014C2F82C15D3F81414C2F83015D3F809
:108B90001814C2F83415D3F81C14C2F84015D3F8D1
:108BA0002014C2F84415D3F82414C2F84815D3F899
:108BB0002814C2F84C15D3F82C14C2F85015D3F869
:108BC0003014C2F85415D3F83414C2F86015D3F831
:108BD0003814C2F86415D3F83C14C2F86815D3F8F9
:108BE0004014C2F86C15D3F83411D3F84434C2F8E9
:108BF0007035052942D84D4B5B5C1BB14C4B4D4A3F
:108C0000C3F88C264C4B5B5C73B14FF080534B49DF
:108C1000D3F83021FB20C1F81805082AD3F8341105
:108C20007FF473AF052929D8454B5B5CBBB14FF08E
:108C300080524FF08040D2F85832D0F8E41ED2F87B
:108C4000304121F00F0103F00F030B43C0F8E43E65
:108C5000082CD2F834117FF458AF05290ED8394BBF
:108C60005B5C5BB14FF08053374AD3F830314FF43F
:108C70000071082BC2F840167FF447AF4FF08043D5
:108C8000D3F80024D2077FF540AF6FF00102C3F89C
:108C900000243AE7D3F83431052B08D94FF01022DD
:108CA0004FF08043D2F80822C3F858253FE7274AFF
:108CB000D35C002B3FF43BAFF0E7254A0123C2F819
:108CC0000435D2F80034002BFBD04FF010231221D2
:108CD0001F4AC3F80012D2F80034002BFBD04FF02B
:108CE000102312211A4AC3F80412D2F80034002BC0
:108CF000FBD000231649C2F80435D1F80034002B0C
:108D0000FBD0BFF34F8F0549124BCA6802F4E062F3
:108D10001343CB60BFF34F8F00BFFDE700ED00E0D2
:108D2000482300200090D00300C000408CC7020000
:108D300000500040488103008CC7020000F0004052
:108D40008CC702008CC702000090024084C702005A
:108D500000E001400400FA05064B1A5C1F2A86BF9A
:108D6000054902F01F024FF0A04101239340C1F8D2
:108D70000C35704794C7020000030050064B1A5C84
:108D80001F2A86BF054902F01F024FF0A0410123B0
:108D90009340C1F80835704794C7020000030050A3
:108DA000C20710B40FD483070AD54FF0A0430C229A
:108DB000C3F82C27C3F83027C3F86027C3F864270B
:108DC0005DF8044B70474FF0A04303224FF400516D
:108DD000C3F834274FF48044C3F83827C3F83C273E
:108DE000C3F84027C3F808154FF480324FF4004110
:108DF000C3F80845C3F80815C3F80825D3E700BF32
:108E000010B568B90E4CA368012262703BB1D3E97A
:108E100000230020A2609847A368002BF7D110BD63
:108E20000128FCD1064C2369A070002BF7D0D3E9B0
:108E300000230120226198472369002BF7D110BD40
:108E4000A42A002070B910B5074CA36801226270F3
:108E50003BB1D3E900230020A2609847A368002B10
:108E6000F7D110BD704700BFA42A002030B50128FB
:108E700083B004D0032821D0B0B103B030BD294C59
:108E800000230DF107008DF80730FEF7F5FD23787C
:108E90006BB3E3689DF8070001221344E360A270FE
:108EA000FEF710FE03B030BD1F4B0122C3F8802037
:108EB000BFF34F8FBFF36F8F03B030BD194C00F07D
:108EC000B5F800230DF107008DF80730FEF7D4FD4B
:108ED000E368013BE360E3681BB9144BD3F800542B
:108EE000C5B19DF80700FEF7EDFD03B030BD104899
:108EF0006360A3602361E36000F08CF802F0BCFEC5
:108F000060B10A4A01232370D2F80024002AC0D09D
:108F1000A370BEE700F09CF8A570E2E700F086F8C9
:108F2000EFE700BFA42A002000E100E000000140BC
:108F3000018E020030B50A4B0A4C53F8213054F828
:108F40002110027885B0D0E901548DF80020C26864
:108F500001958DF8084003926846984705B030BDEA
:108F6000C02A0020B82A002030B50A4B0A4C53F81A
:108F7000213054F82110027885B0D0E901548DF8E1
:108F80000020C26801958DF8084003926846984712
:108F900005B030BDC02A0020B82A0020F0B5184B1B
:108FA000067843F82620174B0446487F9855154607
:108FB000154A8E46096942F8261022789F5CBEE861
:108FC0000F0089B0EC46ACE80F009EE80F008CE87B
:108FD0000F0004964FB1002D0C4A694608BF2A467F
:108FE000201D01F0F1F809B0F0BD002D084A6946D6
:108FF00008BF2A4604F10C0000F042FE09B0F0BDA3
:10900000C02A0020C82A0020B82A0020358F02007C
:10901000698F0200044A137923B9012110609180FD
:109020001846704785207047CC2A0020074B1A68E5
:10903000D20704D4C02283F8002301221A604FF023
:1090400080430122C3F81825704700BF00E100E00B
:109050004FF0804202210023C2F8081382B0C2F808
:109060000431D2F80431019301230199D360D2F87D
:109070001834DB03FBD402B0704700BF10B54FF0CB
:10908000804382B0D3F8002162B10021164AC3F8B0
:109090000011D3F80011507900910121009CC3F810
:1090A0000813A8B14FF08043D3F80421CAB10022BD
:1090B000C3F80421D3F80421019202210A4A01983D
:1090C000C3F808131368012002B0BDE81040184728
:1090D0001368517198474FF08043D3F80421002A58
:1090E000E5D102B010BD00BFCC2A002030B5284C1D
:1090F00094F86A3083B0002B46D14FF6FF704FF0E2
:10910000FF0C5A09012A18BF4FF0FF3103F01F026C
:1091100008BF014621FA02F2D20748BFE21803F164
:10912000010348BF82F830C0302BEAD14FF0FF3046
:109130004FF0FF314FF0FF33C4E900010622002158
:1091400014482366C4E90233C4E90433C4E906338E
:10915000C4E90833C4E90A3302F05EFF0E4BC022B3
:1091600083F8062340221A600C4B0020C3F87C01D0
:10917000D3F87C21019201214FF00042019D84F837
:109180006A10C3F8042300E0082003B030BD00BF1C
:10919000D82A00203C2B002000E100E000600040C5
:1091A000034B93F86A00003818BF0120704700BFD6
:1091B000D82A002070B57D4B03EB000E9EF930C01D
:1091C000BCF1000F01DB082070BD91F802C01CF05B
:1091D000020FCCF340055DD11C6A013400F0DF8042
:1091E0005C6A013400F0D1804FF00C0E4FF00A0C95
:1091F00053F82C40013459D00CF10104744547D286
:1092000053F82460013600F0B8800CF10204744574
:109210003ED253F82460013600F0AF800CF1030613
:10922000764535D253F8264001343ED00CF1040681
:1092300076452DD253F82640013436D00CF1050680
:10924000764525D253F8264001342ED00CF106067F
:1092500076451DD253F82640013426D00CF107067E
:10926000764515D253F8264001341ED00CF108067D
:1092700076450DD253F82640013416D00CF1090C76
:10928000F44505D2DC6A013408BF4FF00B0C0DD059
:10929000042070BD1C68013471D05C6801347BD03F
:1092A0004FF0080E4FF0020CA2E7B44643F82C2012
:1092B0001A184FFA8CFE82F830E015B99C448CF8ED
:1092C00058008A7854071CD4D50747D51F2887BF74
:1092D000374A00F01F0404464FF0A04202EB84021C
:1092E000D2F8004724F00204C2F80047314DC40808
:1092F00000F0070C2E5D012202FA0CF232432A55CF
:109300008A7812F002021CD04FEA8E0303F18043E8
:1093100003F5C0430978D3F8104524F44F3424F4FE
:109320004074C3F8104502020904D3F8100501F493
:10933000403102F47C520A430243C3F81025002056
:1093400070BDAEF1080E43FA8EF30C7893F86010FE
:10935000104641EA841283F8602070BD1F284C78C3
:1093600087BF134D00F01F0202464FF0A04502F5E3
:10937000E072A40045F82240B8E7A44696E71A60D8
:1093800000228EF8302096469BE74FF0090C8EF8AD
:1093900030C05A62E64691E74FF0010C86E74FF085
:1093A000080C8EF830C01A62E64687E7D82A0020FB
:1093B000000300503C2B002030B4344C04EB000C74
:1093C00082B09CF93030072B24DD083B44FA83F34C
:1093D00093F860309B09032B47D0012B0CBF4FF44F
:1093E00000324FF440321F288ABF294B4FF0A04370
:1093F00000F01F0003EB8000D0F8003723F4403367
:10940000C0F80037D0F800371A43C0F8002702B080
:1094100030BC7047DAB2072AF9D8980000F18040D2
:1094200003F1400200F5C04052B29200D0F810554E
:1094300092B202F1804202F5C04245F00105C0F847
:1094400010550020106012680192019A0029DED0A8
:109450009CF9302054F82220002AD8D00D4901224E
:1094600002FA03F3C1F80433D1E71F288ABF084A80
:109470004FF0A04200F01F03D2F8102598BF03461A
:10948000DA4002F0010202321204ACE7D82A0020CE
:109490000003005000600040194B034493F9303042
:1094A000072B13DD1F288ABF164B4FF0A04300F097
:1094B0001F0003EB8000D0F8003723F44033C0F8DE
:1094C0000037D0F80037C0F800377047DAB2072A03
:1094D00014D810B49A0002F1804202F5C0420A4C3E
:1094E000D2F81005012120F0010001FA03F3C2F8BF
:1094F0001005C4F808335DF8044B7047704700BF8F
:10950000D82A002000030050006000401F288ABFB6
:10951000054B4FF0A04300F01F00D3F8103523FA9D
:1095200000F000F001007047000300502DE9F04703
:10953000002384B0CDE902331C4AD2F8001101297E
:1095400000F030821E46194BD3F80421012A00F0A6
:109550001A82164BD3F80821012A00F00582134B1A
:10956000D3F80C21012A00F0F081104BD3F8102120
:10957000012A00F0DB810D4BD3F81421012A00F001
:10958000C1810A4BD3F81821012A00F0AC81074BA6
:10959000D3F81C21012A0BD0044BD3F87C21012ADB
:1095A00000F0218256BB04B0BDE8F08700600040A7
:1095B000D3F804231206EFD50022C3F81C21D3F8F8
:1095C0001C110091D3F87C110098012946F0800607
:1095D00014D1C3F87C21D3F87C3101934FF0A04221
:1095E000019BD2F82015CF4B0291C2F82015D3F879
:1095F00020250392C3F8202546F00046CA4F0024D8
:109600000125A30003F18043354203F5C0434FEA2F
:1096100045050BD0D3F8100557F82420D3F81015C2
:10962000C0F30520C1F3014102B190470134082C79
:10963000E7D1002EB7DABC4CBA4E01254FF0A04757
:1096400094F96000431C48D0C0F3C20202F1100339
:109650000DEB030200F0070312F8082C05FA03F3E0
:109660001A42C1B200F03F0037D01F2800F22B8110
:1096700002464FF0A04909EB820305FA02F2D3F843
:1096800000C7D3F800E72EF4403EC3F800E704EB30
:10969000000ECCF3014C9EF930E0D3F800A754F84B
:1096A0002E80BCF1020F0CBF4FF4403E4FF4003E41
:1096B0004EEA0A0EC3F800E7C9F82025B8F1000FFA
:1096C0000BD08909032900F08281BCF1020F00F060
:1096D0007B81BCF1030F00F0A68194F96100411C6D
:1096E00048D0C0F3C20202F110030DEB030200F0F8
:1096F000070312F8082C05FA03F31A42C1B200F06E
:109700003F0037D01F2800F2E28002464FF0A04908
:1097100009EB820305FA02F2D3F800C7D3F800E799
:109720002EF4403EC3F800E704EB000ECCF3014CEE
:109730009EF930E0D3F800A754F82E80BCF1020F58
:109740000CBF4FF4403E4FF4003E4EEA0A0EC3F801
:1097500000E7C9F82025B8F1000F0BD089090329CB
:1097600000F03A81BCF1020F00F03381BCF1030F2D
:1097700000F05D8194F96200421C48D0C0F3C2023F
:1097800002F110030DEB030200F0070312F8082C9E
:1097900005FA03F31A42C1B200F03F0037D01F2888
:1097A00000F2998002464FF0A04909EB820305FAC6
:1097B00002F2D3F800C7D3F800E72EF4403EC3F816
:1097C00000E704EB000ECCF3014C9EF930E0D3F837
:1097D00000A754F82E80BCF1020F0CBF4FF4403E9E
:1097E0004FF4003E4EEA0A0EC3F800E7C9F8202500
:1097F000B8F1000F0BD08909032900F0F280BCF109
:10980000020F00F0EB80BCF1030F00F0088194F927
:109810006300431C47D0C0F3C20202F110030DEBFA
:10982000030200F0070312F8082C05FA03F31A42AA
:10983000C1B200F03F0036D01F2850D802464FF08A
:10984000A04909EB820305FA02F2D3F800C7D3F866
:1098500000E72EF4403EC3F800E704EB000ECCF323
:10986000014C9EF930E0D3F800A754F82E80BCF1EB
:10987000020F0CBF4FF4403E4FF4003E4EEA0A0E7A
:10988000C3F800E7C9F82025B8F1000F0BD089090B
:10989000032900F09780BCF1020F00F09080BCF12A
:1098A000030F00F0B880D7F820250292C7F82025D2
:1098B000D6F820350393C6F8203513437FF4C0AEA5
:1098C00004B0BDE8F08701F01F02B146D3E601F015
:1098D0001F02B1461CE701F01F02B14665E701F027
:1098E0001F02B146ADE7D3F8042351067FF54FAE12
:1098F0000022C3F81821D3F818310093009B46F0DA
:10990000400644E6D3F8042390067FF53AAE0022E1
:10991000C3F81421D3F814310093009B46F02006BD
:109920002FE600BF00030050D82A0020D3F80423FC
:10993000D4067FF520AE0022C3F81021D3F81031F1
:109940000093009B46F0100615E6D3F80423150794
:109950007FF50BAE0022C3F80C21D3F80C31009335
:10996000009B46F0080600E6D3F8042357077FF56E
:10997000F6AD0022C3F80821D3F808310093009B0C
:1099800046F00406EBE5D3F8042392077FF5E1AD3A
:109990000022C3F80421D3F804310093009B46F061
:1099A0000206D6E5D2F8046316F001063FF4CBAD0B
:1099B000C2F80031D2F800310093009BC3E50129C1
:1099C0007FF471AFC0476EE701297FF486AEC047D0
:1099D00083E601297FF4CEAEC047CBE601297FF4B0
:1099E00016AFC04713E70022C3F87C21D3F87C31BF
:1099F00001934FF0A042019BD2F820150E4B02912B
:109A0000C2F82015D3F820250392C3F82025002E94
:109A10003FF411AEF0E502297FF445AFD2E7022909
:109A20007FF4F5AEDDE702297FF457AECFE70229D8
:109A30007FF4A0AED0E700BF00030050014B1B68CD
:109A4000184700BF442B0020104B98421BD130B563
:109A500083B000230DF107008DF807300D46FEF7A7
:109A60000BF80B4B9DF807001C793CB901221D60D7
:109A70001A71FEF727F8204603B030BDFEF722F832
:109A8000112003B030BD0020704700BF002000400F
:109A9000442B0020034B984203D1034B00221A6051
:109AA0001A71704700200040442B00200000000085
:109AB00010B5714AD2F8043399058AB068D5D2F846
:109AC0002431002B64D00023C2F82431D2F8243191
:109AD00001934FF40171694B0198C2F8081393F890
:109AE000291009B901215160634902228DF818201B
:109AF000D1F88024C1F880249FED5D7B9969D868F6
:109B0000CDE9081283ED067BD3E90012079006A881
:109B10009047594AD2F81C31C3B1584B5869196A59
:109B200088426AD993F8281001F0FF00002964D117
:109B3000C2F81C01D2F81C11039103999C68186AA1
:109B4000196A205C01311962C2F81C054A4AD2F830
:109B50004431DBB10021494BC2F84411D2F8440131
:109B600093F829100090009809B1012111609A69B9
:109B700062B1D8685C6A00210122CDE907049961CD
:109B80008DF8182006A8D3E9001290470AB010BD3E
:109B9000394AD2F804335B07BBD5D2F80831002B21
:109BA000B7D0364B996900293ED00021C2F8081180
:109BB000D2F8081104910499D868596AD2F8182586
:109BC00042545A6A996901325A625A6A8A42A0D149
:109BD000DA69002A31D09A611A69D8685C6ADA6059
:109BE000002101220894D961596207905C681968C4
:109BF0008DF8182006A8A0478BE71F4A0020C2F85E
:109C00001C01D2F81C210292029A5A69002A9DD0A6
:109C1000D3E901215C698DF81800CDE9071458617A
:109C2000196806A8904791E7C2F80811D2F8080110
:109C300005900598D2F81825C7E793F8292012B99E
:109C40000D4A012151600C4A4FF40171C2F808130A
:109C5000D8685C6A0021012299618DF81820D3E947
:109C60000012CDE9070406A8904752E7AFF3008041
:109C7000000000000000000000200040502B0020E9
:109C80002DE9F041734E90F804802C2303FB086308
:109C900082B093F82A30002B40F09C8005460C4699
:109CA00000686D491746FFF7CFFE002840F08E8010
:109CB0002368591C19D01F2B4FF001028ABF674936
:109CC0004FF0A04103F01F0302FA03F3C1F8083577
:109CD00023681F2B86BF03F01F03604A4FF0A0428A
:109CE00003F5E073032142F8231063685A1C0BD07C
:109CF0001F2B86BF03F01F03584A4FF0A04203F505
:109D0000E073002142F823102B68A269C3F82425D0
:109D1000227D637D13432A68C2F86C35D4E90012B2
:109D20002B68C3F81425C3F80C15237D012B5CD0D8
:109D30002C2303FB08F3F21857602269F25097B303
:109D40002A68237F0021C2F81C11D2F81C2100923E
:109D5000009A2A68C2F84411D2F844210192019A6B
:109D60002A683F49C2F804132A6842F307310029E0
:109D70004FEA123232DB01F160415B0101F56141D2
:109D8000DBB281F800332B6843F30732002A4FEA35
:109D9000133109DB334C5209012301F01F0103FA8F
:109DA00001F144F822102B680422C3F800252C236B
:109DB00003FB086601220023C6E9063386F8293032
:109DC000736186F82A2002B0BDE8F081112002B04C
:109DD000BDE8F081082002B0BDE8F081224902F020
:109DE0000F025B01DBB28B54CDE7A368591C0BD08B
:109DF0001F2B86BF03F01F0318494FF0A04103F546
:109E0000E073002241F82320E3685A1C1AD01F2B6C
:109E10008ABF12494FF0A04103F01F03012202FA4A
:109E200003F3C1F80835E3681F2B88BF03F01F0355
:109E300003F5E0738CBF09494FF0A041032241F8BC
:109E40002320E3682A68A168C2F80835C2F8101513
:109E50006EE700BF502B0020B19A020000030050B3
:109E60008000020000E100E014ED00E0F8B50368B6
:109E700007793D4C0022C3F800252C2303FB074340
:109E80005B68C3B10368394AC3F80823036843F326
:109E90000732002A4FEA13310EDB5209344D2032CB
:109EA000012301F01F0103FA01F145F82210BFF36D
:109EB0004F8FBFF36F8F0368D3F80C65D3F8145539
:109EC000D3F80825D3F810154FF0FF3CC3F814C59C
:109ED000C3F80CC503686645C3F808C5C3F810C5C8
:109EE0000CD01F2E86BF06F01F06224B4FF0A0435A
:109EF00006F5E0764FF0020C43F826C06E1C0BD03E
:109F00001F2D86BF05F01F051A4B4FF0A04305F526
:109F1000E075022643F825604D1C0BD01F2986BF33
:109F200001F01F01134B4FF0A04301F5E071022532
:109F300043F82150531C0BD01F2A86BF02F01F028A
:109F40000C4B4FF0A04302F5E072022143F82210BF
:109F50000068FFF79FFD2C2303FB0744002384F8D0
:109F60002A306360F8BD00BF502B0020840202003D
:109F700000E100E0000300502DE9F041334C90F87F
:109F800004E02C2303FB0E438446586984B0002868
:109F90004ED15A619960186283F82800DCF80020DD
:109FA000C2F81C01D2F81C210292029ADCF80020AF
:109FB00001219160DCF800209D68C2F81C01D2F8F4
:109FC0001C1101910199196A6E5C196A01311962BB
:109FD000C2F81C655A6812B104B0BDE8F0815E6930
:109FE0001A6ADCF8001096421BD9074602E093F883
:109FF00028200ABBD1F81C21002AF8D0C1F81C7116
:10A00000D1F81C210392039A1A6A15F802801A6A81
:10A0100001321A62C1F81C851A6A9642EAD8DCF845
:10A020000010D1F81C31002BFBD00123CB6004E0E1
:10A03000112004B0BDE8F0810F202C2303FB0E4457
:10A040000023636104B0BDE8F08100BF502B002005
:10A0500010B55B4BD3F824218AB0002A58D00022D7
:10A06000C3F82421D3F82411049102228DF818207A
:10A070000499544AD3F88014C3F880149FED4E7BA2
:10A080000991D3F83C45D06882ED067BCDE9070401
:10A09000D2E9001306A89847494BD3F8442152B19E
:10A0A0000021484AC3F84411D3F844019169039050
:10A0B0000398002961D1424BD3F8202162B10020DE
:10A0C000C3F82001D3F82021029201213D4A029CCD
:10A0D000D9605169002943D1394BD3F85821AAB12D
:10A0E0000020C3F85801D3F85811364A019101995C
:10A0F000516959B1D3F84C458DF81800D2E90131B6
:10A100005061CDE9071406A8116898470AB010BD40
:10A11000D3F810110029BFD0C3F81021D3F81011C3
:10A12000284C05910599A169D3F83C058842B3D123
:10A13000E169002933D0C4E90612D3F8002222F0E5
:10A140002002C3F80022E2680792012122698DF8FB
:10A150001810089063682168E26006A898479BE79A
:10A16000D3F84C458DF81800D2E901315061CDE9A2
:10A17000071406A811689847AEE79FED0F7BD3F848
:10A180003C45D0684FF0010CCDE9070482ED067B19
:10A19000D2E900138DF818C006A898478BE7E2684B
:10A1A000A1610123CDE907208DF8183006A8D4E974
:10A1B0000013984770E700BF000000000000000097
:10A1C00000200040802B00202DE9F04307797F4ECE
:10A1D00007EBC70306EB830387B093F82030002B0F
:10A1E00040F0B58004460D46006879499046FFF777
:10A1F0002BFC002840F0A7802B68591C4FEAC709A8
:10A2000019D01F2B4FF001028ABF72494FF0A041B5
:10A2100003F01F0302FA03F3C1F808352B681F2B64
:10A2200086BF03F01F036B4A4FF0A04203F5E073B3
:10A23000032142F823106B685A1C0BD01F2B86BFDA
:10A2400003F01F03634A4FF0A04203F5E0730021BF
:10A2500042F823102368AA69C3F824252B7D6A7D60
:10A260001A432368C3F86C25D5E900312268C2F887
:10A270000C35C2F814152B7D012B73D009EB0702A6
:10A2800006EB8203C3F804802B6946F82230B8F14C
:10A29000000F47D021682B7F0022C1F81021D1F890
:10A2A0001011019101992168C1F82021D1F82011E4
:10A2B000029102992168C1F82421D1F82411039157
:10A2C00003992168C1F84421D1F8441104910499FB
:10A2D0002168C1F85821D1F858210592059A2268C1
:10A2E0003D49C2F80413226842F3073100294FEABE
:10A2F000123230DB01F160415B0101F56141DBB2FB
:10A3000081F80033226842F30733002B4FEA123101
:10A3100009DB324D5B09012201F01F0102FA01F154
:10A3200045F8231022684F4406EB870601210023DD
:10A3300086F820100821C2F80015C6E906337361BB
:10A3400007B0BDE8F083112007B0BDE8F083082016
:10A3500007B0BDE8F083224902F00F025B01DBB2D7
:10A360008B54CFE7AB68591C0BD01F2B86BF03F073
:10A370001F0318494FF0A04103F5E073002241F894
:10A380002320EB685A1C1AD01F2B8ABF11494FF0AB
:10A39000A04103F01F03012202FA03F3C1F80835BC
:10A3A000EB681F2B88BF03F01F0303F5E0738CBF1E
:10A3B00008494FF0A041032241F82320EB682268AE
:10A3C000A968C2F80835C2F8101557E7802B00209D
:10A3D00051A00200000300501003420000E100E021
:10A3E00014ED00E02DE9F0410579564C05EBC5036D
:10A3F00004EB830301465B68006882B0EE00C3B1E2
:10A40000514BC0F808330B6843F30732002A4FEA78
:10A4100013330EDB5209DFF838C12032012703F075
:10A420001F0307FA03F34CF82230BFF34F8FBFF33B
:10A430006F8F731904EB83039A69D0F8003223F00D
:10A440002003C0F8003242B10023C0F84431D0F8F4
:10A4500044310093009B012343600023C0F858312E
:10A46000D0F858310193019B7319012204EB830347
:10A47000C2609A69D0F85831002BFBD01AB1D0F8DD
:10A480004431002BF6D00023C0F800350B684FF0A4
:10A49000FF38D3F80CE5D3F814C5D3F80825D3F862
:10A4A0001075C3F80C85C3F814850B68C645C3F84E
:10A4B0000885C3F810850CD0BEF11F0F86BF0EF0C3
:10A4C0001F0E22494FF0A0410EF5E07E022341F815
:10A4D0002E30BCF1FF3F0CD0BCF11F0F86BF0CF03B
:10A4E0001F0C1A494FF0A0410CF5E07C022341F803
:10A4F0002C30791C0BD01F2F86BF07F01F07134984
:10A500004FF0A04107F5E077022341F82730531CB4
:10A510000BD01F2A86BF02F01F020C494FF0A0414A
:10A5200002F5E072022341F82230FFF7B3FA354416
:10A5300004EB8504002384F82030636002B0BDE89A
:10A54000F08100BF802B0020100342000003005068
:10A5500000E100E001F0604CBCF1005F30D170B56B
:10A5600090F804E0264C0EEBCE0C04EB8C0C03466A
:10A57000DCF8140082B04FEACE0500283BD1CCF8BD
:10A580001420CCF808101A68C2F82001D2F8202153
:10A590000192019A1A68C2F85801D2F85821009223
:10A5A000009A1A68DCF81460C2F84415C2F84865CD
:10A5B0001A6801219160DCF804201AB102B070BD64
:10A5C000102070471A6800E0C0B9D2F82011D2F804
:10A5D00058010029F8D088B90121D1601B68D3F84F
:10A5E0005821002AFBD005EB0E0304EB8303002265
:10A5F0005A6102B070BD112002B070BD0F20F2E7A9
:10A60000802B002072DF704773DF704776DF704762
:10A610007ADF70477CDF70477FDF70478FDF7047DE
:10A62000B1DF7047FCF732BF08B5037803B108BD4E
:10A63000054B3B211888FFF7E9FF0028F7D0BDE85C
:10A640000840FCF723BF00BF662300200B2801D081
:10A65000FCF71CBF104B1148C01AC008000410B50D
:10A6600040F003000C460E49FCF7A0FA0D4B0E49D2
:10A670001888224601F050FA30F0080207D043F261
:10A680000202904203D043F20142904200D110BD39
:10A69000BDE81040FCF7FABEC0CD0200E8CD0200D4
:10A6A000C4C7020066230020F82B002008B572B151
:10A6B0000020FEF751FB0948094B0A49C01AC0089F
:10A6C0000004BDE8084040F00300FCF76FBA1046F4
:10A6D000FEF754FB0148024B0349EFE7E8CD0200C7
:10A6E000C0CD0200E0C70200F4C70200FCF7CEBEF6
:10A6F00010B50388212B82B0044613D80F2B0FD935
:10A70000103B112B0CD8DFE803F028450B650B0B31
:10A710000B0B0B0B0B0B0B0B0B0B0B1C3B2B05D069
:10A7200002B010BD522B5FD0562BF7D1A088132159
:10A73000FFF76CFF0028F3D002B0BDE81040FCF733
:10A74000A5BE00238088ADF8043001A9FFF766FF9D
:10A750000028E5D0FCF79AFEE2E72D4B2D482E4964
:10A76000C01AC008000440F00300FCF71FFA0020E4
:10A77000FEF7F2FA0020FEF701FB284BA1882848DB
:10A78000198001F0C7F800283ED1FCF73BFE0028F5
:10A79000C6D0D1E71E4B1F482249C01AC00800048A
:10A7A00040F00300FCF702FA0020FEF7E7FA1B4B2B
:10A7B0004FF6FF721A80FCF73BFE10BB1A4B0121CB
:10A7C0001878FFF721FFC8B9002002B0BDE810409B
:10A7D000FEF7C2BA114A0023108885211A46FFF7F6
:10A7E0001BFF00289CD0A7E70C4A002310881946BD
:10A7F0001A46FFF715FF002892D09DE7FCF746FEAA
:10A80000E2E7FCF743FED9E7FCF740FEBDE700BFF7
:10A81000C0CD0200E8CD020008C802006623002077
:10A82000102C002014C802006423002000B54FF44F
:10A830008041A7B00020FBF777FE002840F0E280BF
:10A84000FBF762FE0120FEF7ABFAFDF72BF80028BC
:10A8500040F00881854840F233320121FCF776FD53
:10A86000002840F0FC80FEF793F8002840F0F480C8
:10A8700001F074F9002840F0EC80002317A90120B2
:10A88000179301F04BFA002840F0E08017A801F080
:10A8900003FB002840F0D780112375488DF8203045
:10A8A00001F0C2FB724982B208A8FFF7B3FE00288C
:10A8B00040F0C6800822002117A801F0ADFB6D4AC8
:10A8C0004FF0C87317A8CDE91723FFF7A1FE0028A2
:10A8D00040F0B3806848002100F002FF002840F0FB
:10A8E000A980664B66481793002217A9089200F0CA
:10A8F000FFFF002840F09B80624B6348089308A943
:10A9000001F0A2F8002840F08F805F4B5F4C9B7CE9
:10A910008DF8063041F223503C220021ADF80400AE
:10A9200008A801F079FB02233C2200218DF8203099
:10A9300017A840F20163ADF8223001F06DFB22460A
:10A9400001A901231C9108A852F8041BADF86C3032
:10A9500000F026F9002864D14D4AA16817A800F03C
:10A960001FF900285AD11822002102A801F054FB37
:10A9700000230122ADF8143003934FF480738DF857
:10A980000820ADF81C3041494248402302AA0493F4
:10A99000FFF738FE00283ED11C22002117A801F045
:10A9A0003BFB4FF4A0240023CDE917343A493B4A3E
:10A9B000ADF86A304FF4A034199417A80324CDE9F8
:10A9C0001C128DF868408DF86C3000F00FFCF8B95F
:10A9D000334B34483449C01AC008000440F0030027
:10A9E000FCF7E4F82B4B01211878FFF70DFE60B956
:10A9F0000020FEF7B1F9FBF7E7FD0028FBD1FDF7DA
:10AA0000DDFFF8E7FCF742FD1AE7FCF73FFDEFE753
:10AA1000FCF73CFDDCE7FCF739FDBDE7FCF736FD54
:10AA2000A1E7FCF733FD97E7FCF730FD6DE7FCF796
:10AA30002DFD61E7FCF72AFD53E7FCF727FD49E709
:10AA4000FCF724FD36E7FCF721FD25E7FCF71EFDAA
:10AA50001CE7FCF71BFD10E7FCF718FD08E7FCF707
:10AA600015FD00E7FCF712FDF4E600BF4C230020C3
:10AA700024C802005000A000E42B002025A60200FC
:10AA8000102C0020ADA60200F82B0020542300203B
:10AA9000602300206423002029A60200EDA6020006
:10AAA000C0CD0200E8CD020038C802006DDF70475B
:10AAB00079DF70477DDF704764DF70472DE9F04F25
:10AAC00085B099460E9E0388BDF83CA000911746BC
:10AAD00032880192002B53D04FF00008C346454600
:10AAE000804605E0B8F800200BF1010B5A4529DD3E
:10AAF000D8F8041051F82B00039000220DF10B013F
:10AB000003A8FFF7D9FF044630BB9DF80B20BA42DB
:10AB1000E8D12DB33288D119514536DC4A440DF1C4
:10AB20000B0103A80125FFF7C7FF002832D13188A8
:10AB30009DF80B200A443280B8F800200BF1010B7D
:10AB40005A45D5DCE5B13388019A013B9B1A9BB28B
:10AB5000FF2B1AD809F80230204605B0BDE8F08F67
:10AB60003288511C3A440232524589B20DDC009BB6
:10AB7000318009F801303288013292B23280CDE75B
:10AB80000024204605B0BDE8F08F0C24204605B017
:10AB9000BDE8F08F0446204605B0BDE8F08F00BF49
:10ABA0002DE9F04700231788138090F82D3086B0E8
:10ABB000144606460D46002B40F0FE80B278002A6F
:10ABC00040F0F380F178A1B1DA1CBA4200F2F080D3
:10ABD0000222EA542388012213449BB22380EA54C0
:10ABE000238813449BB22380E954238813449BB2E7
:10ABF00023807268AAB1D91CB94200F2D98002211F
:10AC000092F90020E954238801339BB20A21238062
:10AC1000E954238801339BB22380EA54238801330B
:10AC200023803389002B40F0F180338A002B40F0E1
:10AC30002581338B002B40F03B81336A002B42D0BF
:10AC40002088821DBA4200F2B3801A88052A40F299
:10AC50008A816FF4486802EB080189B24FF27D3CAB
:10AC6000614540F280815988052940F27C816FF46A
:10AC7000486E8E441FFA8EFEE64540F274814FF610
:10AC8000FF7C624502D08A4200F26D8105222A547F
:10AC90002288013292B212212280A95422880132E4
:10ACA00092B222801988A9542A44090A5170228834
:10ACB000023292B222805B88AB542A441B0A537042
:10ACC000238802332380736A002B2FD09988B4F82D
:10ACD00000C0881C0CF102020244BA4268D8FE2867
:10ACE00066D8033105F80C102288013292B2FF2198
:10ACF0002280A9542288013292B222801988A95454
:10AD00002A44090A51702088023080B220809A8833
:10AD100062B199680393002900F02581284401F06D
:10AD20006DF9039B9A8823881344238096F82C306E
:10AD3000002B40F0D680307800283AD03388012BA1
:10AD400000F0118123889A1CBA4231D8012804D11D
:10AD50007178023119448F422AD3023FFF1ABFB2E1
:10AD6000A81804A9ADF81070FFF7A4FE08BB33784B
:10AD7000022B00F000817178BDF810209142C0F0E4
:10AD8000F6809742C0F0F38017460922FE2F0FD8B5
:10AD90002388791CE954238801339BB22380EA5429
:10ADA000238801331F44278003E00433BB4248D982
:10ADB0000C2006B0BDE8F087082FF9D904A8FFF7EA
:10ADC00075FE0028F5D123880822EA542388013330
:10ADD0009BB21B222380EA542088013080B220805D
:10ADE000062228440DF1110101F008F923889DF88D
:10ADF000102006339BB212F0FE0218BF01222380FE
:10AE0000EA54238801339BB22380D7E606F1080871
:10AE10000222CDE900472B4611464046FFF74EFE81
:10AE20000028C6D1CDE9004740462B461022062116
:10AE3000FFF744FE0028BCD1338A002B3FF4F9AE63
:10AE40001CE004A8FFF734FE0028B2D123880322B7
:10AE5000EA54238801339BB219222380EA542388C1
:10AE6000BDF8102001339BB22380EA542B44120A10
:10AE70005A70238802339BB22380A3E606F11008A0
:10AE8000CDE900472B46022203214046FFF716FE7C
:10AE900000288ED1CDE9004740462B4610220721DD
:10AEA000FFF70CFE002884D1338B002B3FF4C5AE96
:10AEB00006F11808CDE900472B460222142140462E
:10AEC000FFF7FCFD00287FF474AFCDE90047404652
:10AED0002B4610221521FFF7F1FD00283FF4ADAEFF
:10AEE00067E7B16A00293ED04FF000094B464FF0AA
:10AEF000160A2BE02388E854238801339BB2238071
:10AF000005F803A0238801339BB2238031F8222067
:10AF1000EA542B44120A5A702088023080B22080F2
:10AF2000B8F8042028444AB1D8F80810D9B101F083
:10AF300065F8B8F8042023881344238096F82C2061
:10AF40005FFA89F39A427FF6F6AEB16A03EB4302E9
:10AF500001EB820809F10109B8F80430D81C02336A
:10AF6000FE2BC7D924E7072006B0BDE8F087012BE8
:10AF700008D008220AE7BDF810309F42F9D31F46D7
:10AF8000092203E78F42F4D30F460822FEE600BFF2
:10AF900075DF704776DF70477ADF70477BDF704779
:10AFA00070B51D4D2B8884B2A34282B011D11B4EC7
:10AFB000297A327B91420ED3337C00222A72F3B974
:10AFC000736933B100228DF80420ADF8064001A862
:10AFD000984702B070BD05F10A011846FFF7D8FF87
:10AFE00040B11128F5D0B369002BF2D002B0BDE812
:10AFF000704018472B7A01332B7202B070BD3B2191
:10B000002046FFF7C7FF30F00803D9D0B369002B03
:10B01000D6D09847D4E700BF382C00201C2C002045
:10B0200070B50288122A82B003466DD015D8102A56
:10B0300030D0112A0FD16A4C828823889A420AD1D3
:10B040006068FCF7D9FC18B1664B9B6903B198475F
:10B050004FF6FF73238002B070BD502AFBD1614DC3
:10B06000C188EA899142F6D1028A022AF3D15C4C66
:10B07000828826889642EED1123000F0A5F9002889
:10B0800000F09880637A002B40F09B80D5E9011393
:10B09000324667E090F80FC0BCF1010FDBD1504C95
:10B0A00021884FF6FF7291427DD14F4D82882280D8
:10B0B0000021217203CDC4F80A00C4F80E10598A89
:10B0C0006089884260D8A08988425DD3E1899B8AE3
:10B0D00040F2F315A94294BF481A481B984253D82E
:10B0E0002944994250D33F4D84F809C0EB89002B85
:10B0F000B1D16B69002BAED001218DF80410ADF8F1
:10B10000062001A89847A6E7354C828821889142FD
:10B11000A1D14089658985421FD8A58985421CD364
:10B12000E0899B8940F2F31C604594BF051AA0EBAF
:10B130000C059D4211D8604498420ED3294B5B699F
:10B140004FF480722281002B85D001228DF80420DB
:10B15000ADF8061001A898477DE7224D00236372E1
:10B160006968AB68207A002818BF19466068FCF748
:10B17000E7FB00283FF46FAFAB69002B3FF46BAFE8
:10B1800002B0BDE870401847164DEB89002161728E
:10B19000002B7FF460AF69686068FCF7D1FB002882
:10B1A0003FF459AFE8E70F4B9B69002B3FF453AFD7
:10B1B0000420E5E76068FCF71FFC00283FF44BAF74
:10B1C000DAE76B6900222272002B3FF444AF0122C0
:10B1D0008DF80420ADF8066001A898473BE700BF52
:10B1E000382C00201C2C00204C2C002070B3F8B50B
:10B1F00086460768164E174D0446BEE80F00B44653
:10B20000ACE80F009EE8070035608CE80700BFB18E
:10B210003846FFF7C1FE90B923681868596803C51E
:10B220000D4B0E490E4A18464FF6FF7440F8041FA6
:10B230001C800021FCF76CFB002818BF0320F8BD20
:10B240002846FFF7ABFE0028EAD0F8BD0E20704775
:10B250001C2C00204C2C0020382C0020582C0020C6
:10B26000A1AF02002DE9F04F0388B0F80490103B25
:10B2700099B007460A2B12D8DFE803F028711111A4
:10B28000111111111178140046484946FCF736FE99
:10B2900045484946FCF732FEFB7B022B7CD019B0B7
:10B2A000BDE8F08F037A41483F2B4FEA131449461B
:10B2B00065D9FCF723FE3E484946FCF71FFE3D4892
:10B2C000494619B0BDE8F04FFCF718BE3A4A9368FA
:10B2D000DB43009351686846FCF748FE009B0193EE
:10B2E000019B9BB34FF000084446214601A8FCF7A0
:10B2F0001DFE30B118AB03EB480308F1010823F839
:10B30000284C0134142CF0D1CDF834800DAD0FCD84
:10B3100002AC0FC40FCD0FC495E8070084E8070006
:10B32000B8F1000F12D0254E0DF10A0B4FF0000AB4
:10B330003BF8025F1C4C204629460434FCF7EAFD2A
:10B34000A642F8D10AF1010AC245F1D1B9F1130FB1
:10B350009AD90420FCF79AF819B0BDE8F08F11488B
:10B36000494619B0BDE8F04FFCF7D4BD037A002B75
:10B3700095D1437A0D481B074946F2D5A1E7FCF762
:10B38000C9FD032C97D00A484946FCF7C3FD022C9F
:10B3900095D008484946E4E709484946FCF7AEFD20
:10B3A0007DE700BF802C00207C2C0020902C00200A
:10B3B0008C2C0020882C0020782C0020F42C0020DD
:10B3C000842C0020AADF7047008800F0010070473D
:10B3D000F0B58B7891B0012B38BF01230C468DF866
:10B3E0000E3005460B88ADF80C30164600210322BE
:10B3F000684600F011FE637C0022013B8DF80020BE
:10B40000042B09D8DFE813F0CF00D300D700DB000E
:10B41000050022238DF80030A37C0022013B8DF82B
:10B420000120042B09D8DFE813F0CE00D200D600AB
:10B43000DA00050022238DF80130E37B217B41EA0D
:10B44000C301237C41EA03119DF8023001F0190188
:10B4500023F019031943237D002B14BF022301237A
:10B4600063F342018DF802101C22002109A800F0AC
:10B47000D3FD637B13F0300F74D1637B8DF82430E0
:10B480001422A37B8DF82530002104A800F0C4FD10
:10B49000A288A368ADF81C2003AACDF814D00492AA
:10B4A0001BB10893E388ADF81830A369002B36D0A0
:10B4B00001AF03220021384600F0AEFDA2691188D9
:10B4C000ADF82C1000238DF804305388ADF82E30E1
:10B4D00053680D970A93137B013B042B2DD8DFE8AB
:10B4E00003F0969A9E8A290022238DF80530917ADE
:10B4F000137A43EAC103D17A927B002A9DF8062091
:10B5000043EA011322F0190203F0190343EA02038C
:10B5100014BF0222012262F342038DF80630E36970
:10B5200003B10C93334604AA09A92846FFF74AFF42
:10B5300011B0F0BD22238DF80430537B0021013B74
:10B540008DF80510042BD2D801A151F823F000BFCB
:10B55000FFB5020007B60200E7B50200EFB5020032
:10B56000E9B4020002AF03220021384600F054FD86
:10B57000E37C0022013B8DF80920042B07D8DFE88B
:10B5800003F0525E5A56030022238DF809309DF8CD
:10B590000A300E97012262F342038DF80A3011231C
:10B5A0008DF8083069E711238DF8003034E7212346
:10B5B0008DF8003030E731238DF800302CE712236E
:10B5C0008DF8003028E711238DF8013035E721236D
:10B5D0008DF8013031E731238DF801302DE712234A
:10B5E0008DF8013029E731238DF805307FE71223EC
:10B5F0008DF805307BE712238DF804309DE7112389
:10B600008DF8053073E721238DF805306FE711239E
:10B610008DF8043091E721238DF804308DE7312334
:10B620008DF8043089E711238DF80930AFE7122334
:10B630008DF80930ABE731238DF80930A7E72123D6
:10B640008DF80930A3E700BF90DF7047A5DF704792
:10B65000B5DF704770B5002484B061F30F04002398
:10B6600061F31F446A4602A90294064603930093BD
:10B67000ADF80430FFF7E8FF044610B9204604B0E7
:10B6800070BD124B124DED1AED08FDF711FA2D04A5
:10B6900045F0010503460F4932462846FBF7C4F83A
:10B6A000BDF80020BDF8023052EA030103D00A4978
:10B6B0002846FBF7B9F8BDF80420002ADED028465A
:10B6C0000649FBF795F9204604B070BDC0CD0200D5
:10B6D00008CE020050C802009CC80200DCC802006C
:10B6E00008B90E2070474FF01712002301614FF088
:10B6F0001B0C41F61B31026080F804C0C0F8062024
:10B7000043818181184670478288002A3FD130B535
:10B710000388242B83B00C4611D80F2B33D9103B50
:10B72000142B30D8DFE803F074992F2F2F2F2F2FF1
:10B730002F2F2F2F2F2F2F2F2F2F2FA388003A2B74
:10B7400046D0552B1FD1C388C988A272172B38BF8A
:10B7500017238B4228BF0B4623811046FFF778FF43
:10B76000002840F08F80E37A6BB922695AB12189B1
:10B77000ADF8041040F67720ADF80000ADF80230C7
:10B78000694620469047A37A5BB903B030BD704745
:10B79000112840F09280237B627B01219A42A172A2
:10B7A00045D3E1880020FFF751FF60B31128ECD0AA
:10B7B000FDF77EF9484B4949024649481B1ADB0808
:10B7C0001B0443F0010003B0BDE83040FBF710B9A3
:10B7D0004389C98825698B4228BF0B46172B38BF80
:10B7E0001723238165B1E17A51B140F67721ADF895
:10B7F0000010ADF80220ADF8043069462046A84795
:10B8000000236381C1E74FF48073638103B030BDCF
:10B810000B790B73C27B012A42D0022A30D14988AE
:10B82000E18022898A423ED3627B9A42ABD219469A
:10B830000020FFF70FFFA6E70B69027A4A73002B7F
:10B84000A1D000204DF67A218DF8050000918DF8E9
:10B85000042069462046984795E74FF017110022CB
:10B8600041F61B33C4F806106281A3818DE7017A8B
:10B87000237B994228BF19460020FFF7EBFE82E7A1
:10B88000C988CEE7FDF714F9134B16490246144850
:10B890001B1ADB081B0443F00100FBF7A9F862E761
:10B8A0000988E180BDE70020FFF7D0FE00287FF483
:10B8B0006FAF0122237BE272B6E7FDF7F9F8064B82
:10B8C0000649024606481B1ADB081B0443F0010028
:10B8D000FBF78EF8237BA7E708CE020034C90200ED
:10B8E000C0CD020068C90200B0DF704766DF704754
:10B8F00060B159B10378DE2B0AD009684160DE22BD
:10B900004FF6FF7302704380002070470E2070478F
:10B910000820704738B10378DE2B02D14180002027
:10B920007047082070470E20704700BFF9B170B50E
:10B93000054684B050B10B78DE2B0C4606D18088CA
:10B940004B88984214D02B88012B01D004B070BDD5
:10B950002E7A012EFAD16388A8889842F6D12672F1
:10B960000021FFF7C3FF00284DD12072EEE770479A
:10B970000B7AEBB92B88112B31D0512BE4D1AB7959
:10B98000022BE3D1AA7B02F0FD0104292ED0052A67
:10B99000DCD100226946C1E901220092CA608DF81B
:10B9A0000030FFF7A1FF0028D0D063689847CDE7AB
:10B9B0000021FFF79BFF0346B0B1112813D0636845
:10B9C00098472B88112B06D0512BBDD1A8886388AE
:10B9D0008342D4D0BAE7AA8863889A42B6D14FF698
:10B9E000FF736380B2E701232372EAE7694600220E
:10B9F000C1E901220092CA604FF4C0728DF8003094
:10BA0000ADF80420CDE7112804D0636804B0BDE888
:10BA100070401847267299E7A8DF7047AEDF70477D
:10BA200062DF70470288502A00D07047B0F806C025
:10BA30004A889445F9D1028A012AF6D14B69002B34
:10BA4000F3D0827C8088184730B5324B0A68426157
:10BA500004460FCB8FB00DF1080C8CE80F0004F1F9
:10BA600012016046FFF7DCFF08B10FB030BDA07CCB
:10BA70008DF8060041F22353224601A90120ADF8BA
:10BA80000430FFF7C9FF0028EFD10146202206A8A5
:10BA900000F0C2FA9DF82530A17C8DF81A102246DC
:10BAA00023F0120343F0120341F224518DF82530A4
:10BAB000ADF8181001234FF0011532F80A0B8DF87C
:10BAC000293006A98DF82B300795FFF781FC002857
:10BAD000CBD10146202206A800F09EFA9DF8253021
